:1020000002EF10F0D1EF3FF0FF00FF00FF00FF00F4
:107F9000FF00FF00FF00FF00FF00FF00FF009396BF
:107FA0001200046A0001D5EF3FF0CFEC3FF000D0A3
:107FB000DDEC3FF0FDD702EF10F08186000E026E7F
:107FC000640E016EECEC3FF08196000E026E640EC2
:107FD000016EECEC3FF01200100E036E940EE82ED2
:107FE000FED7032EFCD700F00106D8A00206012818
:107FF000D8B40228D8A401D001D0EED700D0120006
:00000001FF
