:040000002EEF04F0EB
:100800000902200001010080320904000002FFFFFC
:10081000FF020705810240000F0705020240000F9A
:10082000180350000052004F004700520041004D95
:10083000004D00450052000012010002000000407F
:10084000ADDE02000000010200010C030052005561
:1008500000440041000004030904000000EE01F020
:100860000F0EEE6AE806FDE1000EF86E000139EFAA
:0608700004F000EF00F0AF
:020000040020DA
:08000000FFFFFFFFFFFFFFFF00
:020000040030CA
:0E00000000051F1FFF8385FF0FC00FE00F409C
:00000001FF
